{"abi":[{"type":"fallback","stateMutability":"payable"},{"type":"receive","stateMutability":"payable"},{"type":"function","name":"_0","inputs":[],"outputs":[{"name":"","type":"address","internalType":"address"}],"stateMutability":"view"},{"type":"function","name":"_accounts","inputs":[{"name":"","type":"address","internalType":"address"}],"outputs":[{"name":"balance","type":"uint128","internalType":"uint128"},{"name":"context","type":"uint32","internalType":"uint32"},{"name":"escaped","type":"uint96","internalType":"uint96"}],"stateMutability":"view"},{"type":"function","name":"balanceOf","inputs":[{"name":"a","type":"address","internalType":"address"}],"outputs":[{"name":"","type":"uint128","internalType":"uint128"}],"stateMutability":"view"},{"type":"function","name":"deposit","inputs":[],"outputs":[],"stateMutability":"payable"},{"type":"function","name":"transfer","inputs":[{"name":"from","type":"address","internalType":"address"},{"name":"to","type":"address","internalType":"address"},{"name":"amount","type":"uint256","internalType":"uint256"}],"outputs":[{"name":"","type":"uint160","internalType":"uint160"}],"stateMutability":"nonpayable"},{"type":"function","name":"withdraw","inputs":[{"name":"","type":"uint256","internalType":"uint256"}],"outputs":[],"stateMutability":"pure"}],"bytecode":{"object":"0x608060405234801561001057600080fd5b50610697806100206000396000f3fe6080604052600436106100595760003560e01c80632e1a7d4d1461007057806355b8c46b1461009057806370a08231146100c2578063a59bed5814610119578063beabacc8146101a2578063d0e30db01461006857610068565b36610068576100666104d9565b005b6100666104d9565b34801561007c57600080fd5b5061006661008b366004610599565b610527565b34801561009c57600080fd5b506100a5600081565b6040516001600160a01b0390911681526020015b60405180910390f35b3480156100ce57600080fd5b506101016100dd3660046105ce565b6001600160a01b03166000908152602081905260409020546001600160801b031690565b6040516001600160801b0390911681526020016100b9565b34801561012557600080fd5b5061016f6101343660046105ce565b6000602081905290815260409020546001600160801b03811690600160801b810463ffffffff1690600160a01b90046001600160601b031683565b604080516001600160801b03909416845263ffffffff90921660208401526001600160601b0316908201526060016100b9565b3480156101ae57600080fd5b506100a56101bd3660046105f0565b6000808290506000806000876001600160a01b03166001600160a01b031681526020019081526020016000206040518060600160405290816000820160009054906101000a90046001600160801b03166001600160801b03166001600160801b031681526020016000820160109054906101000a900463ffffffff1663ffffffff1663ffffffff1681526020016000820160149054906101000a90046001600160601b03166001600160601b03166001600160601b03168152505090506000806000876001600160a01b03166001600160a01b031681526020019081526020016000206040518060600160405290816000820160009054906101000a90046001600160801b03166001600160801b03166001600160801b031681526020016000820160109054906101000a900463ffffffff1663ffffffff1663ffffffff1681526020016000820160149054906101000a90046001600160601b03166001600160601b03166001600160601b03168152505090508282600001818151039150906001600160801b031690816001600160801b0316815250508281600001818151019150906001600160801b031690816001600160801b03168152505080600080886001600160a01b03166001600160a01b0316815260200190815260200160002060008201518160000160006101000a8154816001600160801b0302191690836001600160801b0316021790555060208201518160000160106101000a81548163ffffffff021916908363ffffffff16021790555060408201518160000160146101000a8154816001600160601b0302191690836001600160601b0316021790555090505081600080896001600160a01b03166001600160a01b0316815260200190815260200160002060008201518160000160006101000a8154816001600160801b0302191690836001600160801b0316021790555060208201518160000160106101000a81548163ffffffff021916908363ffffffff16021790555060408201518160000160146101000a8154816001600160601b0302191690836001600160601b03160217905550905050600093505050509392505050565b33600090815260208190526040812080543492906105019084906001600160801b031661062c565b92506101000a8154816001600160801b0302191690836001600160801b03160217905550565b60405162461bcd60e51b815260206004820152603d60248201527f596f75207265616c6c79207468696e6b20796f7520636f756c6420676574205560448201527f53442066726f6d207769746864726177696e67206f737521636f696e3f000000606482015260840160405180910390fd5b6000602082840312156105ab57600080fd5b5035919050565b80356001600160a01b03811681146105c957600080fd5b919050565b6000602082840312156105e057600080fd5b6105e9826105b2565b9392505050565b60008060006060848603121561060557600080fd5b61060e846105b2565b925061061c602085016105b2565b9150604084013590509250925092565b6001600160801b0381811683821601908082111561065a57634e487b7160e01b600052601160045260246000fd5b509291505056fea26469706673582212207daad0890f96577c90f489ba486613bceb29a0015bb69419cf2412c21a59951164736f6c63430008180033","linkReferences":{}},"methodIdentifiers":{"_0()":"55b8c46b","_accounts(address)":"a59bed58","balanceOf(address)":"70a08231","deposit()":"d0e30db0","transfer(address,address,uint256)":"beabacc8","withdraw(uint256)":"2e1a7d4d"},"id":23}